{
  "_format": "hh-sol-artifact-1",
  "contractName": "CryptoLocker",
  "sourceName": "contracts/CryptoLocker.sol",
  "abi": [
    {
      "anonymous": false,
      "inputs": [
        {
          "indexed": true,
          "internalType": "address",
          "name": "user",
          "type": "address"
        },
        {
          "indexed": false,
          "internalType": "uint256",
          "name": "amount",
          "type": "uint256"
        },
        {
          "indexed": false,
          "internalType": "uint256",
          "name": "timeLocked",
          "type": "uint256"
        },
        {
          "indexed": false,
          "internalType": "uint256",
          "name": "totalValueLocked",
          "type": "uint256"
        }
      ],
      "name": "newLocked",
      "type": "event"
    },
    {
      "anonymous": false,
      "inputs": [
        {
          "indexed": true,
          "internalType": "address",
          "name": "user",
          "type": "address"
        },
        {
          "indexed": false,
          "internalType": "uint256",
          "name": "valueRetrived",
          "type": "uint256"
        },
        {
          "indexed": false,
          "internalType": "uint256",
          "name": "totalValueLocked",
          "type": "uint256"
        }
      ],
      "name": "newRetrived",
      "type": "event"
    },
    {
      "inputs": [],
      "name": "SCValueLocked",
      "outputs": [
        {
          "internalType": "uint256",
          "name": "",
          "type": "uint256"
        }
      ],
      "stateMutability": "view",
      "type": "function"
    },
    {
      "inputs": [],
      "name": "claimBack",
      "outputs": [],
      "stateMutability": "payable",
      "type": "function"
    },
    {
      "inputs": [
        {
          "internalType": "uint256",
          "name": "_amount",
          "type": "uint256"
        },
        {
          "internalType": "uint256",
          "name": "_time",
          "type": "uint256"
        }
      ],
      "name": "lock",
      "outputs": [],
      "stateMutability": "payable",
      "type": "function"
    },
    {
      "inputs": [],
      "name": "usersLocking",
      "outputs": [
        {
          "internalType": "uint256",
          "name": "",
          "type": "uint256"
        }
      ],
      "stateMutability": "view",
      "type": "function"
    }
  ],
  "bytecode": "0x608060405234801561001057600080fd5b50610978806100206000396000f3fe60806040526004361061003f5760003560e01c80631338736f1461004457806362c24950146100605780639b8c3e211461008b578063efc2b63c14610095575b600080fd5b61005e600480360381019061005991906105d9565b6100c0565b005b34801561006c57600080fd5b50610075610306565b6040516100829190610628565b60405180910390f35b610093610310565b005b3480156100a157600080fd5b506100aa610594565b6040516100b79190610628565b60405180910390f35b60003411610103576040517f08c379a00000000000000000000000000000000000000000000000000000000081526004016100fa906106a0565b60405180910390fd5b3073ffffffffffffffffffffffffffffffffffffffff166108fc839081150290604051600060405180830381858888f19350505050158015610149573d6000803e3d6000fd5b50816000803373ffffffffffffffffffffffffffffffffffffffff1673ffffffffffffffffffffffffffffffffffffffff168152602001908152602001600020600082825461019891906106ef565b925050819055504262015180826101af9190610723565b6101b991906106ef565b600260003373ffffffffffffffffffffffffffffffffffffffff1673ffffffffffffffffffffffffffffffffffffffff168152602001908152602001600020600082825461020791906106ef565b9250508190555060018060003373ffffffffffffffffffffffffffffffffffffffff1673ffffffffffffffffffffffffffffffffffffffff16815260200190815260200160002060006101000a81548160ff021916908315150217905550816003600082825461027791906106ef565b925050819055506004600081548092919061029190610765565b9190505550600560008154809291906102a990610765565b91905055503373ffffffffffffffffffffffffffffffffffffffff167f48f784cb617dad1fce36820f9c30a4a44be2edf4a53755a872972970c7cb834583836003546040516102fa939291906107ad565b60405180910390a25050565b6000600354905090565b60018060003373ffffffffffffffffffffffffffffffffffffffff1673ffffffffffffffffffffffffffffffffffffffff16815260200190815260200160002060006101000a81548160ff02191690831515021790556103a5576040517f08c379a000000000000000000000000000000000000000000000000000000000815260040161039c90610830565b60405180910390fd5b60008060003373ffffffffffffffffffffffffffffffffffffffff1673ffffffffffffffffffffffffffffffffffffffff1681526020019081526020016000205490506000811161042b576040517f08c379a00000000000000000000000000000000000000000000000000000000081526004016104229061089c565b60405180910390fd5b6000600160003373ffffffffffffffffffffffffffffffffffffffff1673ffffffffffffffffffffffffffffffffffffffff16815260200190815260200160002060006101000a81548160ff0219169083151502179055503373ffffffffffffffffffffffffffffffffffffffff166108fc829081150290604051600060405180830381858888f193505050501580156104c9573d6000803e3d6000fd5b5060008060003373ffffffffffffffffffffffffffffffffffffffff1673ffffffffffffffffffffffffffffffffffffffff16815260200190815260200160002081905550346003600082825461052091906108bc565b925050819055506004600081548092919061053a906108f0565b91905055503373ffffffffffffffffffffffffffffffffffffffff167f980e187e488e6701d088b81450e8485d4aa5a81100e5343cab041039a2bb099582600354604051610589929190610919565b60405180910390a250565b6000600454905090565b600080fd5b6000819050919050565b6105b6816105a3565b81146105c157600080fd5b50565b6000813590506105d3816105ad565b92915050565b600080604083850312156105f0576105ef61059e565b5b60006105fe858286016105c4565b925050602061060f858286016105c4565b9150509250929050565b610622816105a3565b82525050565b600060208201905061063d6000830184610619565b92915050565b600082825260208201905092915050565b7f56616c7565206e65656420746f2062652067726561746572207468616e20302e600082015250565b600061068a602083610643565b915061069582610654565b602082019050919050565b600060208201905081810360008301526106b98161067d565b9050919050565b7f4e487b7100000000000000000000000000000000000000000000000000000000600052601160045260246000fd5b60006106fa826105a3565b9150610705836105a3565b925082820190508082111561071d5761071c6106c0565b5b92915050565b600061072e826105a3565b9150610739836105a3565b9250828202610747816105a3565b9150828204841483151761075e5761075d6106c0565b5b5092915050565b6000610770826105a3565b91507fffffffffffffffffffffffffffffffffffffffffffffffffffffffffffffffff82036107a2576107a16106c0565b5b600182019050919050565b60006060820190506107c26000830186610619565b6107cf6020830185610619565b6107dc6040830184610619565b949350505050565b7f596f7520617265206e6f74206c6f636b696e6720616e792076616c75652e0000600082015250565b600061081a601e83610643565b9150610825826107e4565b602082019050919050565b600060208201905081810360008301526108498161080d565b9050919050565b7f302076616c756520746f20756e6c6f636b2e0000000000000000000000000000600082015250565b6000610886601283610643565b915061089182610850565b602082019050919050565b600060208201905081810360008301526108b581610879565b9050919050565b60006108c7826105a3565b91506108d2836105a3565b92508282039050818111156108ea576108e96106c0565b5b92915050565b60006108fb826105a3565b91506000820361090e5761090d6106c0565b5b600182039050919050565b600060408201905061092e6000830185610619565b61093b6020830184610619565b939250505056fea2646970667358221220ee91cbc827cabfed5f69f790d408135fd2ba292b95779276971313016e33372a64736f6c63430008110033",
  "linkReferences": {},
  "deployedLinkReferences": {}
}